S01E00004646204143545541544F52204D4F544F5220323031382E737265635B
S113000058C0000074C0000072C00000A7C0000007
S11300106EC000006CC000006AC0000068C0000030
S113002066C0000064C000008FC0000060C0000013
S11300305EC000005CC000005AC00000CCC60000D6
S113004056C000000C94B608BFC4000050C00000A5
S11300504EC0000055C2000035C2000048C0000078
S113006046C0000044C0000042C0000040C0000080
S11300703EC000003CC000003AC0000038C0000090
S113008078C2000058C2000032C0000030C0000036
S11300902EC0000005A84CCDB2D44EB93836A90202
S11300A00C50B9918688083CA6AAAA2ABE00000072
S11300B0803F11241FBECFEFD0E1DEBFCDBF11E0E2
S11300C0A0E0B1E0E4E1FBE100E00BBF02C0079077
S11300D00D92A635B107D9F723E0A6E5B1E001C03A
S11300E01D92AB3CB207E1F77ED20C94880D88CF09
S11300F090E0909399008093980090939B00809354
S11301009A00749873980895CF93DF9380E9EDD0A3
S113011080E010D137D181E9E8D01ED1D82F27D182
S1130120C82F30D18C2F90E09D2BDF91CF91089573
S113013080E9DBD081E0FED080E4FCD080EAFAD014
S113014021D181E090E008951F920F920FB60F9293
S113015011240F900FBE0F901F9018951F920F92AD
S11301600FB60F9211240BB60F922F933F934F9318
S11301705F936F937F938F939F93AF93BF93EF930B
S1130180FF93F89481E0809300018091560190914F
S1130190570101969093570180935601809156011F
S11301A090915701843F914039F08091560190918C
S11301B057018C309E4FE1F4F8943DD660935C0176
S11301C070935D0180935E0190935F014AD683E052
S11301D04ED7609358017093590180935A019093BC
S11301E05B0183E067D67894109257011092560110
S11301F07894FF91EF91BF91AF919F918F917F91EF
S11302006F915F914F913F912F910F900BBE0F9083
S11302100FBE0F901F90189545D683E04BD600D69D
S1130220E9E6F0E0808180638083EA9A08952F9262
S11302303F924F925F926F927F928F929F92AF9272
S1130240BF92CF92DF92EF92FF920F931F93409150
S1130250000140905C0150905D0160905E017090DF
S11302605F018CE34802A0011124952F990F990B8B
S11302706894AA24A6F80F2EF2E4BF2EF02D0F2EB8
S1130280FFE0CF2EF02DD12CE12CF12C00E010E07A
S1130290242F352F492F592F692F792F892F0E9409
S11302A09A0B12012301A22CB32CC42CD52C0E942E
S11302B0ED0B622F732F842F952F1F910F91FF90B9
S11302C0EF90DF90CF90BF90AF909F908F907F90F2
S11302D06F905F904F903F902F900895809300010E
S11302E0089589EF8093B8000895ECEBF0E0108254
S11302F094EA908390819923ECF79091B900987FC8
S11303009830A1F48093BB0084E88093BC00ECEBAC
S1130310F0E080818823ECF79091B900987F9831C0
S113032039F081E0903429F480E0089581E0089563
S113033080E008958093BB0084E88093BC00ECEBDC
S1130340F0E080818823ECF79091B900987F81E0F8
S1130350983209F480E0089584EC8093BC00ECEBBF
S1130360F0E080818823ECF78091BB00089584E855
S11303708093BC00ECEBF0E080818823ECF7809163
S1130380BB00089584E98093BC00089590916503AF
S11303909F5F9F71209143039217E1F3E92FF0E0EF
S11303A0E657FC4F80832FB7F89490936503E1ECF4
S11303B0F0E08081806280832FBF0895CF93DF9324
S11303C0EC012196FC018081882321F0DFDF8991F3
S11303D08111FCCFDF91CF910895CF93DF93CDB7F7
S11303E0DEB727970FB6F894DEBF0FBECDBF4AE045
S11303F0BE016F5F7F4F0E94F90CCE010196DEDFD4
S113040027960FB6F894DEBF0FBECDBFDF91CF9114
S11304100895CF93DF93CDB7DEB72C970FB6F8943A
S1130420DEBF0FBECDBF2AE0AE014F5F5F4F0E941B
S1130430030DCE010196C2DF2C960FB6F894DEBFF1
S11304400FBECDBFDF91CF9108959091430380916A
S113045065039813FACF089580914403909186031D
S1130460891759F08F5F982F9F71E92FF0E0EE5DA7
S1130470FC4F808190934403089580E008950F9386
S11304801F93CF93DF93EC016130B1F06250062FDC
S113049010E00F5F1F4F080F191FDEDF88838823CA
S11304A0E1F38D3021F4D8DF8823E9F305C02196E8
S11304B0C017D10791F7E8011882DF91CF911F91FE
S11304C00F9108950F930FB7EF93FF93E0914303B8
S11304D0F0916503E395EF71EF1305C0F091C1004E
S11304E0FF7DF093C100E0934303F0E0E657FC4F37
S11304F0E081E093C600FF91EF910FBF0F91189533
S11305000F930FB79F939091C600EF93FF93E091E1
S11305108603F0914403E395EF71FE1731F0E09305
S11305208603F0E0EE5DFC4F9083FF91EF919F9185
S11305300FBF0F9118950F930FB7EF93FF93E091AF
S11305408703F0918903E395EF71EF1305C0F091F0
S1130550C900FF7DF093C900E0938703F0E0EB5BF3
S1130560FC4FE081E093CE00FF91EF910FBF0F911C
S113057018950F930FB79F939091CE00EF93FF932D
S1130580E0918803F0914203E395EF71FE1731F097
S1130590E0938803F0E0EA59FC4F9083FF91EF91D8
S11305A09F910FBF0F9118958DB188618DB9E1E9C5
S11305B0F0E0808181608083A0E9B0E08C91826B5F
S11305C08C9380818861808380E091E09093970090
S11305D080939600089510929100109290008EB12D
S11305E0877E8EB90895CF93DF93CDB7DEB7A197F9
S11305F00FB6F894DEBF0FBECDBFD6DF44D480EE75
S113060048D484E190E0909399008093980090936B
S11306109B0080939A0065DE8BDD1092C4001092DB
S1130620C50088E98093C10081E091E0C7DEF4DD74
S113063060E070E080E090E0B8D278948EE290E0E0
S11306400E94630DC82ED92E8093AB039093AC0304
S11306508CE290E00E94630D9093B9038093B803F9
S11306608AE290E00E94630D9093BF038093BE03DF
S1130670EC2CFD2C68EE73E080E04BD562E370E077
S113068083E047D562E370E081E043D564E670E03F
S113069084E03FD56AE070E085E03BD561E070E03E
S11306A082E037D50F2EFAE02F2EF02D68945524D2
S11306B051F80F2EF0ECCF2EF3E0DF2EF02D6894DE
S11306C0662465F87724739433243A94412CB3D385
S11306D06135734C8105910510F080E0FFDD80E009
S11306E039D5882321F080EED9D380E039D583E051
S11306F031D5882309F430C0C7016FDE8EE091E064
S11307005DDEC4016ADE8EE091E058DEC80165DE7C
S11307108EE091E053DE8091AA0390E05EDE8EE0ED
S113072091E04CDE8091BA0390E057DE8EE091E0D8
S113073045DE6091BC037091BD03072E000C880B4D
S1130740990B67DE8EE091E039DE71DD62DE80E1D7
S113075091E034DE83E004D581E0FCD4882309F4FD
S11307609EC08091860390914403891B8F7109F484
S113077094C066E1CE01019682DE63E171E0CE01B0
S113078001960E94F00C892B29F425DF86E0D5D44C
S113079086E0E7D36BE171E0CE0101960E94F00C94
S11307A0892B09F401DF61E271E0CE0101960E9418
S11307B0F00C892B49F4B4018EE290E00E94680D9C
S11307C09092AC038092AB0361E371E0CE01019699
S11307D00E94F00C892B49F4B4018CE290E00E9451
S11307E0680D9092B9038092B80362E471E0CE017F
S11307F001960E94F00C892B49F4B4018AE290E03E
S11308000E94680D9092BF038092BE036DE471E074
S1130810CE0101960E94F00C892B39F481E080937B
S1130820AA03E090AB03F090AC036BE471E0CE015B
S113083001960E94F00C892B31F45092AA03E090A7
S1130840B803F090B9036FE471E0CE0101960E9401
S1130850F00C892B31F41092AA03E090BE03F090BF
S1130860BF0361E571E0CE0101960E94F00C892B73
S113087031F486E01FD365E070E086E04AD4CE010F
S113088001960E94D30C892B39F02092AA03CE0141
S113089001960E94D30C7C01D8DD81E061D484E010
S11308A059D4882381F0F6017182608283E08283C7
S11308B0BEDCF601748363838091BA038583C60129
S11308C00CD284E04DD485E045D4882329F1CE01AF
S11308D04796C0D18823F1F08F89988D9093BD03FA
S11308E08093BC032A8D2093BB038135924091F4FD
S11308F0211107C01092AA03E090BE03F090BF0339
S113090009C0213039F481E08093AA03E090AB035D
S1130910F090AC0385E024D4852D1CD48823A1F168
S1130920F3DB4C015701A81AB90AB5010B2C000CD2
S1130930880B990B8DD523E333E343E35FE314D6AC
S113094020E030E040E053E484D44FD56F3F71059C
S113095019F014F0632D742D8B01772314F400E047
S113096010E0802FC5DB22E3A216B1045CF4B1943D
S1130970A194B10832E3A316B10424F48091AA032C
S11309808093BA03852DECD386E0E4D3882309F45D
S11309909ECE86E0ECD2BC0180E090E057D520E00A
S11309A030E04AEF53E4B9D442D620E030E04AEFD5
S11309B055E4DAD520E030E44CE156E44AD415D5C8
S11309C07B0186E0CDD383CE1F920F920FB60F9298
S11309D011240BB60F922F933F934F935F936F9312
S11309E08F939F93AF93BF93EF93FF93CF93DF9333
S11309F01F92CDB7DEB78091E00080FF47C0909191
S1130A00DE0090FF43C01092ED00EEEEF0E0808136
S1130A10898380818F7B80838091650190916401BB
S1130A20981789F18F702BE0829FC0011124FC017B
S1130A30EA5EFD4F20812093F00020812093F20094
S1130A4021812093F3002381AAEFB0E02C93248129
S1130A502C9325812C9326812C9327812C932085FC
S1130A602C9321852C9322852C93FC01E85EFD4F69
S1130A7080818F7080648093EF00809165018F5F27
S1130A80809365017DC0109263017AC081FF78C0B4
S1130A908091DE0081FF74C080E18093ED0080913D
S1130AA06101282F30E090916201291B31092F77D1
S1130AB03327203131050CF058C0E82FEF709091A6
S1130AC0EF002E2F30E04BE0E49FF0011124EA59AF
S1130AD0FE4F9F704281407F942B92834091F2009D
S1130AE09091F000407E9770942B90839091F30046
S1130AF09183AAEFB0E09C9193839C9194839C9101
S1130B0095839C9196839C9197839C9190879C91CB
S1130B1091879C9192878F5F809361014081429578
S1130B20469547705181652F660F660F660F862FB5
S1130B30842B952F929596959770892BB1F48BE021
S1130B40829FF001839FF00D1124EA59FE4F8381A7
S1130B50833059F498E088E10FB6F894A89580930F
S1130B6060000FBE90936000FFCFEEEEF0E0808156
S1130B708983898180818F7D808380E88093EF00E1
S1130B800F90DF91CF91FF91EF91BF91AF919F9122
S1130B908F916F915F914F913F912F910F900BBE69
S1130BA00F900FBE0F901F901895CF93DF93E8ED31
S1130BB0F0E021E020831092E2002CE02093E30097
S1130BC027E32093E4001092E7001092E6001092CD
S1130BD0E9001092E8001092EC001092E500CDEECE
S1130BE0D0E01882AEEEB0E01C9220E128831C9283
S1130BF01092F400282F2295220F207E2093F600D5
S1130C009695879596958795969587958093F70001
S1130C101092F000862F8295880F807E8093F200D8
S1130C207695679576956795769567956093F300C5
S1130C3080E88093EF0083E08093DC008093DE0003
S1130C4080EB8093DB0082E0808310926001DF916F
S1130C50CF910895CF93DF93EC01409162012091ED
S1130C606101241789F1A42FAF708BE0A89FB00114
S1130C701124FB01EA59FE4F208122952695277005
S1130C803181532F550F550F550F252B329536951E
S1130C90377028833983FB01E859FE4F20812F7078
S1130CA02A83222399F0DB01A759BE4FFE01339614
S1130CB030E02D5F3F4FCE01820F931F2D91219382
S1130CC0E817F907D9F702C080E004C04F5F4093EA
S1130CD0620181E0DF91CF910895CF93DF93FC010E
S1130CE0ABEDB0E08C918F778C938091630181118F
S1130CF027C01092ED0080818295880F807E8093BA
S1130D00F200808191819695879596958795969521
S1130D1087958093F300DF0113969F01255F3F4F72
S1130D20CAEFD0E09D919883A217B307D9F781E069
S1130D3080936301828180648093EF0081E043C0EB
S1130D4020916401822F90E030916501831B910909
S1130D508F7799274097B1F1A22FAF708BE0A89FAE
S1130D60D0011124ED01CA5EDD4F8081982F929548
S1130D70990F907E88818F71892B88838081982F29
S1130D809695969596958981807E892B8983918104
S1130D909295990F907E8F71892B89838281982FE8
S1130DA09F708A81807F892B8A83A75EBD4F33968B
S1130DB088E001900D928A95E1F72F5F20936401FA
S1130DC081E001C080E0EBEDF0E0908190689083D9
S1130DD0DF91CF9108951F920F920FB60F921124B5
S1130DE08F939F93AF93BF938091C6029091C70254
S1130DF0A091C802B091C9020196A11DB11D8093B2
S1130E00C6029093C702A093C802B093C902BF91CF
S1130E10AF919F918F910F900FBE0F901F901895D7
S1130E2010928000E1E8F0E080818260808381E0BC
S1130E3080936F0008958091C6029091C702A0919B
S1130E40C802B091C9022091840030918500DC0170
S1130E5099278827BC01CD01620F731F811D911D45
S1130E6008951092C6021092C7021092C8021092FE
S1130E70C9021092850010928400B09A089595B129
S1130E80892B85B9089584B1806E84B980EEF7CF3B
S1130E90089595B18095982395B9089595B18927BA
S1130EA085B9089514BC81E080936E0084B5836095
S1130EB084BD08958F929F92AF92BF92CF92DF929A
S1130EC0EF92FF920F931F93CF93DF93C82FD0E03D
S1130ED026B5CE01880F991F880F991FAC01465083
S1130EE05D4F4A01A12C0F2EF0E7BF2EF02D0F2EDF
S1130EF0FFE2CF2EF02D0F2EFCEFDF2EF02DEE248F
S1130F00EA94FF24FA940FEF1FEF30E040E050E042
S1130F1060E070E080E090E00DD40F2EF2E1BF2E8F
S1130F20F02D0F2EFAE7CF2EF02DD12CE12CF12C41
S1130F3000E010E052D4F4012083318342835383D0
S1130F40C65EDC4F81E08883DF91CF911F910F91C2
S1130F50FF90EF90DF90CF90BF90AF909F908F90D5
S1130F600895E82FF0E0E65EFC4F108208954F925A
S1130F705F926F927F92AF92BF92CF92DF92EF9285
S1130F80FF920F931F93CF93DF9300D000D0CDB780
S1130F90DEB726B534E0839FC0011124FC01E6507E
S1130FA0FD4F4080518062807380D301C201BB0F2A
S1130FB0880B982FDC0189839A83AB83BC83A12C93
S1130FC00F2EF0E9BF2EF02D0F2EF0EDCF2EF02DC9
S1130FD00F2EF3E0DF2EF02DE12CF12C00E010E0D9
S1130FE030E040E050E060E070E080E090E0A2D3C8
S1130FF00F2EF2E1BF2EF02D0F2EFAE7CF2EF02D9B
S1131000D12CEBD3A22EB32EC42ED52EE62EF72E42
S1131010082F192F242D352D462D572D6981762F14
S1131020862F962FA8D40F2EF8EEAF2EF02D0F2E6C
S1131030F3E0BF2EF02DC12CD12CE12CF12C00E0DB
S113104010E0CBD3822F932F0F900F900F900F901F
S1131050DF91CF911F910F91FF90EF90DF90CF9090
S1131060BF90AF907F906F905F904F9008958F9254
S11310709F92AF92BF92CF92DF92EF92FF920F9323
S11310801F93CF93DF9326B534E0839FC0011124CF
S1131090EC01C650DD4FA12C0F2EF0E9BF2EF02D30
S11310A00F2EF0EDCF2EF02D0F2EF3E0DF2EF02DCE
S11310B0E12CF12C00E010E030E040E050E060E092
S11310C070E080E090E036D30F2EF2E1BF2EF02DD9
S11310D00F2EFAE7CF2EF02DD12C7FD3822E932E14
S11310E0A42EB52E88819981AA81BB81BC01CD0132
S11310F0680D791D8A1D9B1DDF91CF911F910F9162
S1131100FF90EF90DF90CF90BF90AF909F908F9023
S1131110089590E09C01220F331FF901E653FD4F1F
S113112071836083FC01EE50FD4F41E04083F9017F
S1131130E652FD4F11821082089590E0FC01EE50BA
S1131140FD4F1082880F991FFC01E652FD4F11825A
S113115010820895E82FF0E0E651FD4F8081089554
S1131160E82FF0E0E651FD4F108208951F920F9290
S11311700FB60F9211240BB60F92EF92FF921F93AA
S11311802F933F934F935F936F937F938F939F938B
S1131190AF93BF93CF93DF93EF93FF93A2EFB2E0AC
S11311A0EAEDF2E00F2EFAECEF2EF2E0FF2EF02D36
S11311B02AEE32E04AEF52E011E08D91882379F073
S11311C080819181019691838083E701688179818F
S11311D08617970721F411821082E9011883329649
S11311E0D2E0ED0EF11C2F5F3F4FA417B50729F78E
S11311F0AAE1B3E0EAEFF2E02AE133E08D9188233B
S113120059F04081518162817381585F6F4F7F4FE4
S113121040835183628373833496E217F30771F733
S1131220FF91EF91DF91CF91BF91AF919F918F91FA
S11312307F916F915F914F913F912F911F91FF90FB
S1131240EF900F900BBE0F900FBE0F901F9018954C
S11312505058BB27AA270ED04DC13ED130F043D100
S113126020F031F49F3F11F41EF433C10EF4E095E5
S1131270E7FB29C1E92F4FD180F3BA17620773073F
S11312808407950718F071F49EF567C10EF4E09594
S11312900B2EBA2FA02D0B01B90190010C01CA012C
S11312A0A0011124FF27591B99F0593F50F4503ED7
S11312B068F11A16F040A22F232F342F4427585FC9
S11312C0F3CF469537952795A795F0405395C9F7E1
S11312D07EF41F16BA0B620B730B840BBAF0915099
S11312E0A1F0FF0FBB1F661F771F881FC2F70EC038
S11312F0BA0F621F731F841F48F48795779567950B
S1131300B795F7959E3F08F0B3CF9395880F08F0F3
S11313109927EE0F9795879508950CD0EBC0E3D0ED
S113132040F0DAD030F021F45F3F19F0CCC0511115
S113133015C1CFC0F0D098F39923C9F35523B1F365
S1131340951B550BBB27AA2762177307840738F030
S11313509F5F5F4F220F331F441FAA1FA9F333D08F
S11313600E2E3AF0E0E830D091505040E695001C43
S1131370CAF729D0FE2F27D0660F771F881FBB1FFF
S1131380261737074807AB07B0E809F0BB0B802DD9
S1131390BF01FF2793585F4F2AF09E3F510568F025
S11313A092C0DCC05F3FECF3983EDCF38695779502
S11313B06795B795F7959F5FC9F7880F911D969527
S11313C0879597F90895E1E0660F771F881FBB1F83
S11313D0621773078407BA0720F0621B730B840B30
S11313E0BA0BEE1F88F7E095089504D06894B11104
S11313F0B5C0089598D088F09F5790F0B92F9927D9
S1131400B751A0F0D1F0660F771F881F991F1AF00B
S1131410BA95C9F712C0B13081F09FD0B1E00895F8
S11314209CC0672F782F8827B85F39F0B93FCCF379
S1131430869577956795B395D9F73EF49095809501
S1131440709561957F4F8F4F9F4F0895E89409C021
S113145097FB3EF490958095709561957F4F8F4FE3
S11314609F4F9923A9F0F92F96E9BB279395F695F9
S1131470879577956795B795F111F8CFFAF4BB0F77
S113148011F460FF1BC06F5F7F4F8F4F9F4F16C0DB
S1131490882311F096E911C0772321F09EE8872F65
S11314A0762F05C0662371F096E8862F70E060E021
S11314B02AF09A95660F771F881FDAF7880F96959A
S11314C0879597F9089597F99F6780E870E060E041
S11314D008959FEF80EC089500240A9416161706C9
S11314E018060906089500240A9412161306140611
S11314F005060895092E0394000C11F4882352F074
S1131500BB0F40F4BF2B11F460FF04C06F5F7F4F2B
S11315108F4F9F4F089557FD9058440F551F59F012
S11315205F3F71F04795880F97FB991F61F09F3FCC
S113153079F087950895121613061406551FF2CFF5
S11315404695F1DF08C0161617061806991FF1CF45
S113155086957105610508940895E894BB2766276C
S11315607727CB0197F908950BD0C4CFB5DF28F0C6
S1131570BADF18F0952309F0A6CFABCF1124EECF34
S1131580CADFA0F3959FD1F3950F50E0551F629FDA
S1131590F001729FBB27F00DB11D639FAA27F00DC8
S11315A0B11DAA1F649F6627B00DA11D661F829FEF
S11315B02227B00DA11D621F739FB00DA11D621FD4
S11315C0839FA00D611D221F749F3327A00D611DF1
S11315D0231F849F600D211D822F762F6A2F1124D3
S11315E09F5750408AF0E1F088234AF0EE0FFF1F26
S11315F0BB1F661F771F881F91505040A9F79E3F5D
S1131600510570F060CFAACF5F3FECF3983EDCF356
S1131610869577956795B795F795E7959F5FC1F799
S1131620FE2B880F911D9695879597F908959F93A2
S113163005D00F9007FCEE5F28C04BCF74DFE8F3B2
S1131640E894E0E0BB279F57F0F02AED3FE049EC37
S113165006C0EE0FBB0F661F771F881F28F0B23A33
S113166062077307840728F0B25A620B730B840B6A
S1131670E3959A9572F7803830F49A95BB0F661FFC
S1131680771F881FD2F7904813C0EF93E0FF06C07E
S1131690A2EA2AED3FE049EC5FEBECDD2BDF0F9093
S11316A0039401FC9058E4E9F0E00EC09F3F31F050
S11316B0915020F4879577956795B795880F911D7C
S11316C09695879597F908959F938F937F936F933A
S11316D0FF93EF939B01AC0147DFEF91FF9105D09E
S11316E02F913F914F915F913FCFDF93CF931F9302
S11316F00F93FF92EF92DF927B018C01689405C0F7
S1131700DA2EEF013DDFFE01E894A5912591359194
S113171045915591AEF3EF01ADDDFE019701A801AE
S1131720DA9479F7DF90EF90FF900F911F91CF91AA
S1131730DF910895DF93CF931F930F939A9DF02D1C
S1131740219FF00D8B9DF00D8A9DE02DF10D039FDF
S1131750F00D029FE00DF11D4E9DE00DF11D5E9D0B
S1131760F00D4F9DF00D7F936F93BF92AF925F93F7
S11317704F93D50109D18B01AC01D70105D1EB0100
S1131780E80FF91FD6011FD02F913F91D601FCD04D
S1131790C60FD71FE81FF91FAF91BF9114D02F9127
S11317A03F91F2D0C60FD71FE81FF91FD601ECD026
S11317B0E60FF71F9801BE01CF0111240F911F916D
S11317C0CF91DF910895E0D0460F571FC81FD91F4E
S11317D008F431960895689401C0E894F92FF12B28
S11317E00AF027C0A0E0B0E0E7EFFBE093C0092EC9
S11317F005941AF479D0112392F4F0E80F26FFEF40
S1131800E094F09400951095B094C094D094A19471
S1131810BF0ACF0ADF0AEF0AFF0A0F0B1F0B13D010
S113182007FC62D0CDB7DEB7ECE090C0689401C08D
S1131830E8948F929F92CF93DF9305D0DF91CF915D
S11318409F908F90089588249924F401E401B0E4D2
S11318509F93AA279A158B049C04ED05FE05CF05DA
S1131860D007A10798F4AD2FDC2FCF2FFE2FE92D41
S1131870982C892E982F872F762F652F542F432F3E
S1131880322F2227B85031F7BF9127C01B2EBF91AA
S1131890BB27220F331F441F551F661F771F881F46
S11318A0991F881C991CEE1FFF1FCC1FDD1FAA1F48
S11318B0BB1F8A149B04EC05FD05CE05DF05A007BC
S11318C0B10748F08A189B08EC09FD09CE09DF0925
S11318D0A00BB10B21601A94E1F62EF49401AF0130
S11318E0BE01CD01000C089560957095809590958A
S11318F030954095509521953F4F4F4F5F4F6F4F17
S11319007F4F8F4F9F4F08952F923F924F925F9238
S11319106F927F928F929F92AF92BF92CF92DF92FB
S1131920EF92FF920F931F93CF93DF93CDB7DEB760
S1131930CA1BDB0B0FB6F894DEBF0FBECDBF0994F4
S11319402A88398848885F846E847D848C849B844B
S1131950AA84B984C884DF80EE80FD800C811B8159
S1131960AA81B981CE0FD11D0FB6F894DEBF0FBE88
S1131970CDBFED0108952A0D3B1D4C1D5D1D6E1D4F
S11319807F1D801F911F0895A29FB001B39FC001C6
S1131990A39F700D811D1124911DB29F700D811D97
S11319A01124911D0895FC0188279927E894219119
S11319B02032E9F3293010F02E30C8F32B3239F0FD
S11319C02D3231F4689403C02CD0820F911D2191E3
S11319D020532A30C8F31EF4909581959F4F0895A3
S11319E0FB01DC018D91019080190110D9F3990B51
S11319F00895BB274A3031F4992322F4BDE290952F
S1131A0081959F4F38C0BB272A3051F4992342F463
S1131A10BDE290958095709561957F4F8F4F9F4F54
S1131A2009C07AE0979F902D879F802D910D1124F6
S1131A300895BB27FA01A62F621771058105910548
S1131A40330B30FB66F0AA27660F771F881F991F98
S1131A50AA1FA21710F0A21B63953850A9F7A05D26
S1131A60AA3308F0A95DA19336F7B111B19310829E
S1131A70CA0119C0BB27FB015527AA27880F991F44
S1131A80AA1FA41710F0A41B83955051B9F7A05DA9
S1131A90AA3308F0A95DA193009779F7B111B19326
S1131AA01192CB0100C0DC01FC01672F71917723F7
S1131AB0E1F7329704C07C916D9370836291AE1705
S1131AC0BF07C8F30895A8E1B0E042E050E005C0C4
S1131AD012D0272F11C0DC01CB01FC01F999FECFF4
S1131AE006C0F2BDE1BDF89A319600B40D924150A2
S1131AF05040B8F70895262FF999FECF92BD81BDC5
S1131B0020BD0FB6F894FA9AF99A0FBE019608957B
S1071B10F894FFCF73
S1131B140145692067756465207769653F007C0029
S1131B240D0A0072656C6561736500737461727487
S1131B3400736574466972737447656172506F7398
S1131B44007365745365636F6E6447656172506FA7
S1131B54730073657449646C65506F730066006E3A
S1091B640073696E6500C8
S9030000FC
