:100000000C944A000C9467000C9467000C946700F1
:100010000C9467000C9467000C9467000C946700C4
:100020000C9467000C9467000C9467000C946700B4
:100030000C9467000C9467000C9467000C946700A4
:100040000C9467000C9461030C9465020C94670097
:100050000C9467000C9493010C9475010C94670048
:100060000C9467000C9467000C9467000C94670074
:100070000C9467000C9467000C9467000C94670064
:100080000C94CC010C94AE010C9467000C946700A6
:100090000C94670011241FBECFEFD8E0DEBFCDBFA8
:1000A00011E0A0E0B1E0EEEDF7E002C005900D92A6
:1000B000A830B107D9F723E0A8E0B1E001C01D9254
:1000C000AF31B207E1F70E94FE010C94ED030C94EE
:1000D000000090E090939D0080939C0090939B0083
:1000E00080939A00749875980895CF93DF9384E96C
:1000F0000E94A50080E00E94C7000E94EC0085E9F4
:100100000E94A5000E94D800D82F0E94E200C82FAC
:100110000E94EC008C2F90E09D2BDF91CF910895F1
:1001200084E90E94A50081E00E94C70080E40E944B
:10013000C70080EA0E94C7000E94EC0081E090E0C6
:10014000089589EF8093B80008951092BC0094EA56
:100150009093BC009091BC0097FFFCCF9091B900A8
:10016000987F983011F081E008958093BB0084E877
:100170008093BC008091BC0087FFFCCF8091B900C8
:10018000887F883111F0803471F780E00895809382
:10019000BB0084E88093BC008091BC0087FFFCCF4B
:1001A0009091B900987F81E0983209F480E0089539
:1001B00084EC8093BC008091BC0087FFFCCF8091D1
:1001C000BB00089584E88093BC008091BC0087FF49
:1001D000FCCF8091BB00089584E98093BC00089512
:1001E0009091DA0293959F71B091B802B917E1F33B
:1001F000A92FB0E0A150BD4F8C93F8949093DA02F0
:100200009091C10090629093C1001895FC0181917A
:10021000882311F0E5DFFBCF0895CF93DF93CDB7AF
:10022000DEB727970FB6F894DEBF0FBECDBF4AE00A
:10023000BE016F5F7F4F0E94B003CE0101960E9406
:10024000060127960FB6F894DEBF0FBECDBFDF9133
:10025000CF9108959091B8028091DA029813FACF65
:1002600008959091B9028091FB02981751F09F5F19
:100270009F71A92FB0E0A956BD4F8C919093B90200
:10028000089580E00895FC01ECDF8132E8F381936A
:100290006A956A9561F0E5DF8823E9F38D3021F0F6
:1002A000813228F08193F5CFDCDF8823E9F31082D7
:1002B0000895CF93DF93CDB7DEB727970FB6F894A5
:1002C000DEBF0FBECDBF67E0CE0101960E944301A5
:1002D000CE0101960E94920327960FB6F894DEBFD6
:1002E0000FBECDBFDF91CF9108950F930FB7EF935E
:1002F000FF93E091B802F091DA02E395EF71EF130A
:1003000005C0F091C100FF7DF093C100E093B802F9
:10031000F0E0E150FD4FE081E093C600FF91EF91E6
:100320000FBF0F9118950F930FB79F939091C60031
:10033000EF93FF93E091FB02F091B902E395EF7127
:10034000FE1731F0E093FB02F0E0E956FD4F908399
:10035000FF91EF919F910FBF0F9118950F930FB7DA
:10036000EF93FF93E091FC02F091FE02E395EF71B1
:10037000EF1305C0F091C900FF7DF093C900E09331
:10038000FC02F0E0E654FD4FE081E093CE00FF91E7
:10039000EF910FBF0F9118950F930FB79F93909107
:1003A000CE00EF93FF93E091FD02F091B702E39549
:1003B000EF71FE1731F0E093FD02F0E0E552FD4FE2
:1003C0009083FF91EF919F910FBF0F9118958DB181
:1003D00080638DB9E1E9F0E0808181608083A0E9EC
:1003E000B0E08C918E628C9380818861808380E004
:1003F00091E0909397008093960008950E94E70102
:100400000E94520380EE0E9458030E94A1000E94A5
:1004100090001092C4001092C50088E98093C1003A
:1004200078948FE79EE30197F1F700C000000E94E7
:100430007500909309018093080180EE0E945D038E
:1004400080910801909109012091000130910101F2
:10045000821B930B803B91057CF480910801909165
:1004600009012091000130910101821B930B81351C
:100470009F4F24F0CEE703C0C0E001C0CFEF8C2F28
:100480000E94690080910801909109010E940D016C
:1004900082E091E00E9406018C2F90E00E940D0105
:1004A00084E091E00E9406018091FB029091B902E4
:1004B000891B8F7109F4B5CF0E94590190930101F6
:1004C000809300010E942A01ACCF1F920F920FB6B9
:1004D0000F9211242F933F934F935F938F939F938A
:1004E000EF93FF93CF93DF931F92CDB7DEB7809149
:1004F000E00080FF4EC09091DE0090FF4AC0109255
:10050000ED008091EE0089838091EE008F7B8093D7
:10051000EE0080910E0190910D019817B9F18F7046
:100520002BE0829FC0011124FC01E154FE4F208189
:100530002093F00020812093F20021812093F3008A
:1005400023812093FA0024812093FA0025812093AF
:10055000FA0026812093FA0027812093FA00208553
:100560002093FA0021852093FA0022852093FA0037
:10057000FC01EF53FE4F80818F7080648093EF0009
:1005800080910E018F5F80930E0178C010920C0154
:1005900075C081FF73C08091DE0081FF6FC080E174
:1005A0008093ED0090910A01292F30E080910B019A
:1005B000281B31092F773327203131050CF052C029
:1005C000E92FEF708091EF002BE0E29FF001112402
:1005D000E15FFE4F282F2F708281807F822B8283E4
:1005E0002091F2008091F000207E8770822B808322
:1005F0004091F30041835091FA0053832091FA0017
:1006000024832091FA0025832091FA0026832091EB
:10061000FA0027832091FA0020872091FA00218791
:100620002091FA0022879F5F90930A018295869518
:100630008770942F990F990F990F292F282B342FFA
:10064000329536953770232B69F4533059F498E07E
:1006500088E10FB6F894A895809360000FBE909340
:100660006000FFCF8091EE00898389818091EE0048
:100670008F7D8093EE0080E88093EF000F90DF91F4
:10068000CF91FF91EF919F918F915F914F913F910A
:100690002F910F900FBE0F901F90189595B1892B39
:1006A00085B9089584B1806E84B980EE0C944E03B0
:1006B00095B18095982395B9089595B1892785B905
:1006C00008951F920F920FB60F9211248F939F934C
:1006D000AF93BF93CF93DF93EF93FF93CFE8D2E035
:1006E000EFE6F2E08991882359F080819181A2811F
:1006F000B381905EAF4FBF4F80839183A283B3835A
:10070000349682E0EF38F80769F7FF91EF91DF91B7
:10071000CF91BF91AF919F918F910F900FBE0F908E
:100720001F901895FC0188279927E8942191203281
:10073000E9F3293010F02E30C8F32B3241F02D327E
:1007400039F4689404C00E94BB03820F911D21916B
:1007500020532A30C0F31EF4909581959F4F089541
:10076000BB274A3031F4992322F4BDE2909581955C
:100770009F4F0C94C4037AE0979F902D879F802D04
:10078000910D11240895BB27FB015527AA27880F37
:10079000991FAA1FA41710F0A41B83955051B9F7F5
:1007A000A05DAA3308F0A95DA193009779F7B11174
:1007B000B1931192CB010C94DD03DC01FC01672F96
:1007C00071917723E1F7329704C07C916D93708328
:0E07D0006291AE17BF07C8F30895F894FFCFEB
:0807DE0010272C000D0A000099
:00000001FF
